:020000040800F2
:1000000000040020B9010008BB010008BB01000882
:10001000BB010008BB010008BB010008BB010008D0
:10002000BB010008BB010008BB01000839CB000878
:10003000BB010008BB010008BB01000873DD00081C
:10004000BB010008BB010008BB010008BB010008A0
:10005000BB010008BB010008C136000801370008D9
:100060004137000885370008C9370008BB01000880
:10007000BB010008BB0100083DE40008BB0100080B
:100080000D380008BB010008BB010008BB010008D7
:10009000BB010008BB010008BB010008BB01000850
:1000A000BB010008BB01000829E000083DE0000892
:1000B000BB010008BB010008BB010008BB01000830
:1000C00091DD0008AD380008BB0100086139000867
:1000D000BB010008BB010008BB010008BB01000810
:1000E00072B6264880F30888254880F30988254899
:1000F00025490860022080F31488BFF36F8F0CF04D
:1001000035FA0CF011F84FF0553020491B4A914256
:100110003CBF41F8040BFAE71D49194A91423CBF24
:1001200041F8040BFAE71B491B4A1C4B9A423EBF9D
:1001300051F8040B42F8040BF8E700201849194A5B
:1001400091423CBF41F8040BFAE70CF013FA0CF0B3
:100150000EFA154C154DAC4203DA54F8041B8847CF
:10016000F9E707F057F8124C124DAC4203DA54F895
:10017000041B8847F9E70CF0FBB9000000040020DD
:10018000000C00200000000808ED00E00000002046
:10019000000400206C0B0108000C002084100020DB
:1001A00088100020F83E0020E0000008E000000871
:1001B000E0000008E000000892E700F000F8FEE729
:1001C0002DE9F04FC1F80CD0C3689D46BDE8F08F13
:1001D000002383F311882846A04700200CF0E0FBA1
:1001E000FEE70CF011FB00DFFEE7000053B94AB94F
:1001F000002908BF00281CBF4FF0FF314FF0FF302F
:1002000000F076B9ADF1080C6DE904CE00F006F807
:10021000DDF804E0DDE9022304B070472DE9F04782
:10022000089E0D4604468846002B4DD18A429446CE
:1002300068D9B2FA82F252B101FA02F3C2F1200196
:1002400020FA01F10CFA02FC41EA030894404FEA5B
:100250001C41B8FBF1F71FFA8CFE01FB178807FB66
:100260000EF0230C43EA084398420AD91CEB03031F
:1002700007F1FF3580F01E81984240F21B81023F5A
:1002800063441B1AB3FBF1F001FB103300FB0EFEBD
:10029000A4B244EA0344A6450AD91CEB040400F1C5
:1002A000FF3380F00981A64540F20681644402389C
:1002B0000021A4EB0E0440EA07401EB10023D44005
:1002C000C6E90043BDE8F0878B4208D9002E00F054
:1002D000EE800021C6E900050846BDE8F087B3FAC4
:1002E00083F100294AD1AB4202D3824200F2FC8062
:1002F000841A65EB030301209846002EE2D0C6E97C
:100300000048DFE702B9FFDEB2FA82F2002A40F0CD
:100310009180A1EB0C0001214FEA1C471FFA8CFED3
:10032000B0FBF7F307FB1300250C45EA00450EFB75
:1003300003F0A84208D91CEB050503F1FF3802D2EF
:10034000A84200F2CE8043462D1AB5FBF7F007FB1A
:1003500010550EFB00FEA4B244EA0544A64508D998
:100360001CEB040400F1FF3502D2A64500F2B68072
:100370002846A4EB0E0440EA03409EE7C1F12007A3
:100380008B4022FA07FC4CEA030C25FA07FA4FEAE5
:100390001C49BAFBF9F820FA07F309FB18AA8D40AB
:1003A0001FFA8CFE1D4300FA01F308FB0EF02C0C23
:1003B00044EA0A44A04202FA01F20BD91CEB0404FD
:1003C00008F1FF3A80F08880A04240F28580A8F1D1
:1003D00002086444241AB4FBF9F009FB104400FB42
:1003E0000EFEADB245EA0444A64508D91CEB040450
:1003F00000F1FF356CD2A6456AD90238644440EA60
:100400000840A0FB0295A4EB0E04AC42C846AE46E1
:1004100056D353D0002E69D0B3EB080264EB0E0420
:1004200022FA01F304FA07F71F43CC40C6E900742F
:10043000002147E70CFA02FCC2F1200125FA01F382
:100440004FEA1C4720FA01F195400D43B3FBF7F149
:1004500007FB11331FFA8CFE280C40EA034001FB16
:100460000EF3834204FA02F408D91CEB000001F1F8
:10047000FF382FD283422DD902396044C01AB0FB15
:10048000F7F307FB1300ADB245EA004503FB0EF09E
:10049000A84208D91CEB050503F1FF3816D2A84283
:1004A00014D9023B6544281A43EA014138E7314632
:1004B000304607E72F46E4E61846F9E64B45A9D251
:1004C000B9EB020865EB0C0E0138A3E74346EAE7F7
:1004D000284694E74146D1E7D0467BE7644402389A
:1004E00047E7023B65442FE7084606E73146E9E661
:1004F000704700BF062008B500F0E0FA01200DF0BB
:1005000081FA00BF024B0146186800F06DB900BFC8
:10051000000C0020024B0146186800F0FFB800BF35
:10052000000C0020032A10B516D940EA010C1CF07B
:10053000030F04460B4622D119462046D1F800E0AD
:10054000D0F800C00433F44504F1040417D1043A90
:10055000032A20461946EFD8541EA2B100F1FF3CF1
:10056000013901E0C3180CD01CF801EF11F8012F7C
:10057000A4EB0C039645F5D0AEEB020010BD541E63
:10058000ECE7184610BD104610BD00BF844641EA96
:10059000000313F0030349D1403A23D30B680360EF
:1005A0004B6843608B688360CB68C3600B690361F1
:1005B0004B6943618B698361CB69C3610B6A0362D9
:1005C0004B6A43628B6A8362CB6AC3620B6B0363C1
:1005D0004B6B43638B6B8363CB6BC36340304031A6
:1005E000403ADBD230320BD30B6803604B68436078
:1005F0008B688360CB68C36010301031103AF3D23F
:100600000C3205D351F8043B40F8043B043AF9D2CC
:10061000043208D0D2071CBF11F8013B00F8013B9F
:1006200001D30B8803806046704700BF082A13D3AC
:100630008B07B1D010F00303AED0C3F10403D21A7C
:10064000DB071CBF11F8013B00F8013BA4D331F8D4
:10065000023B20F8023B9FE7043AD9D3013A11F854
:10066000013B00F8013BF9D20B7803704B784370E3
:100670008B78837060467047830730B548D0541E2E
:10068000002A3FD00346CAB201E0013C3AD303F846
:10069000012B9D07F9D1032C2DD9CDB245EA0525B3
:1006A0000F2C45EA054536D9A4F1100222F00F0CB3
:1006B00003F1200EE6444FEA121C03F1100242E956
:1006C000045542E9025510327245F8D10CF101028D
:1006D00014F00C0F03EB021204F00F0C13D0ACF16A
:1006E000040323F003030433134442F8045B9342EE
:1006F000FBD10CF003042CB1CAB21C4403F8012B4B
:100700009C42FBD130BD64461346002CF4D1F9E77E
:1007100003461446BFE71A46A446E0E7002952D034
:1007200038B551F8043C0C1F002BB8BFE41805463F
:1007300000F0F0FA2B4A1368002B45D0A3420CD9E5
:1007400021686018834228D0636028461460BDE8A1
:10075000384000F0E1BAA3420FD81A465B68002B7C
:10076000F9D11168501884421DD034D363605460AD
:100770002846BDE8384000F0CFBA11685018A042B2
:1007800015D028D8216860188342EFD118685B68BB
:100790000144C4E900135460EAE718685B68014447
:1007A000C4E90013D1E7236819441160E0E7206829
:1007B0000144501883421160DAD1D3E900030144A7
:1007C000C2E90013D4E77047284663601460BDE8AF
:1007D000384000F0A1BA0C2328462B60BDE8384011
:1007E00000F09ABA88100020F8B5CD1C25F003055A
:1007F00008350C2D38BF0C25002D064623DBA942F9
:1008000021D8264F00F086FA3A6822B3144603E056
:1008100063682246FBB11C4623685B1BF8D40B2B94
:1008200015D8636894420CBF3B605360304600F0BB
:1008300073FA04F10B00231D20F00700C21A01D047
:100840001B1AA350F8BD0C2300203360F8BD2360B1
:100850001C442560EAE77968D1B1294630460DF09D
:10086000B5F8431C01460CD0C41C24F00304A0427C
:1008700005D03046611A0DF0A9F8013001D025608D
:10088000D4E70C233046336000F046FA0020F8BD70
:1008900030460DF09BF87860DFE700BF881000203D
:1008A00038B5124B04461D68AA6B1AB10023C2E981
:1008B000044338BD1820FFF725FE0246A86378B12F
:1008C00000210B2301209381C2E90401084B09494F
:1008D000094DC2E9011300231560C2E9044338BD84
:1008E0004221064B064800F0CDF900BF000C002065
:1008F000ECDE050034126DE60E33CDAB9C0A010828
:10090000B40A010838B5194B1C68A26B8AB1136987
:100910001749546903FB01F1164800FB0411A3FBBE
:100920000030013341EB0001C2E9043121F0004005
:1009300038BD1820FFF7E6FD0246A06388B1012408
:1009400000250B230A480C49C2E904451160014601
:100950000A4D0B4C93810B4BC2E90154C2E904319F
:1009600038BD4E21084B094800F08CF9000C0020DE
:100970002DF451582D7F954C0E33CDAB34126DE6CE
:10098000ECDE05002E7F954C9C0A0108B40A010894
:1009900038B5446C0CB1002038BD80210546FFF706
:1009A00023FF0246686430B1031F7C3243F8044FD2
:1009B0009342FBD1EFE74FF0FF3038BD1F29F8B568
:1009C000054608D8466C0C4617464EB156F824002A
:1009D00046F82470F8BD16234FF0FF302B60F8BDA9
:1009E0008021FFF701FF0646686440B10021031F24
:1009F00000F17C0543F8041F9D42FBD1E6E74FF070
:100A0000FF30F8BD1F2938B5054620D8426C0C468A
:100A10006AB152F8213053B1012B16D0591C10D0B5
:100A20000025204642F824509847284638BD2846DD
:100A300000F0F8F8224601462846BDE8384000F0AC
:100A4000DDB8162301202B6038BD002038BD1623E9
:100A50004FF0FF302B6038BD1F292BD8426C38B5C2
:100A60000C46054682B152F8243002EB84024BB1A9
:100A7000591C1AD0012B16D0002520461560984726
:100A8000284638BD012038BD8021FFF7ADFE024663
:100A9000686460B10020131F02F17C0143F8040F69
:100AA0009942FBD1DFE7032038BD022038BD4FF06B
:100AB000FF3038BD4FF0FF30704700BF38B5144BE2
:100AC0001F281D681FD86A6C044662B152F8203096
:100AD0004BB1012B15D0591C0FD0002542F82050E6
:100AE0009847284638BD284600F09CF82246014623
:100AF0002846BDE8384000F081B8162301202B605D
:100B000038BD002038BD16234FF0FF302B6038BDB4
:100B1000000C0020124B1F2870B51E6808D80D4627
:100B2000716C044649B151F8240041F8245070BD5D
:100B300016234FF0FF30336070BD80213046FFF741
:100B400053FE0146706440B10022031F00F17C0C8B
:100B500043F8042F6345FBD1E5E74FF0FF3070BD4C
:100B6000000C002038B50B4B1D686C6C0CB10020DC
:100B700038BD80212846FFF737FE686438B1031F6F
:100B800000F17C0243F8044F9342FBD1EFE74FF0B2
:100B9000FF3038BD000C002038B5174B1F281D68EA
:100BA00027D86A6C044682B152F8243002EB8402E2
:100BB0004BB1591C1BD0012B17D0002520461560C6
:100BC0009847284638BD012038BD80212846FFF7C8
:100BD0000BFE0246686460B10020131F02F17C0125
:100BE00043F8040F8B42FBD1DEE7032038BD02201F
:100BF00038BD4FF0FF3038BD000C002070B5002626
:100C0000074D0446084611462E600CF003FF431CB6
:100C100000D070BD2B68002BFBD0236070BD00BFDF
:100C2000901000200CF0FEBE20F0030110F0030035
:100C3000C0F1000051F8043B00F1040C4FEACC0C69
:100C40006FF000021CBF22FA0CF213434FF0010CAC
:100C50004CEA0C2C4CEA0C4CA3EB0C0222EA0302EB
:100C600012EACC1204BF51F8043B0430F4D0C2F1B4
:100C7000000102EA0102B2FA82F2C2F11F0200EBA5
:100C8000D2007047144600B51A460A4B0D461B6841
:100C900085B0DE6803464CB10749019130460749EB
:100CA0000294009500F022F8FFF724FC04490C465A
:100CB000F3E700BF000C0020E80A0108F80A010869
:100CC000F40A010808B513460022FFF7DBFF00BF56
:100CD0000CB400B583B004AB53F8042B019300F0BF
:100CE00057F803B05DF804EB02B070470EB400B5DE
:100CF000074A82B003AB0146106853F8042B0193F6
:100D000000F046F802B05DF804EB03B0704700BF96
:100D1000000C0020704700BF704700BF9368013B84
:100D2000002B936005DAD2F818C0634507DB0A2967
:100D300005D01368581C106008461970704700F001
:100D400069BB00BF9BB1F8B5134406460F46541E5D
:100D50005D1E01E0AC4208D03A46304614F8011F4F
:100D6000FFF7DCFF431CF5D1F8BD0020F8BD0020E3
:100D7000704700BF936810B5144613B91846536006
:100D800010BD00F031FE0023C4E9013310BD00BFE7
:100D90002DE9F04F0E4692461C4607469FB018B10B
:100DA0008369002B00F0A880954B9E4200F0AA803A
:100DB000944B9E4200F0B580934B9E4208BFFE6864
:100DC000B389180740F1A3803369002B00F09F809E
:100DD000002320220B9330239AF80010059401255C
:100DE0008A4C8DF831208DF8323000297DD0D146E3
:100DF0000B4604E019F8013F002B00F09480252BEE
:100E0000F8D1B9EB0A0B40F0918099F80030002B33
:100E10006BD000234FF0FF3209F10109CDE9072320
:100E2000069309938DF85B301C9304E0001B05FAD0
:100E300000F018430690CA460522204619F8011B07
:100E400001F01CF8069B0028F0D1D90644BF2022EF
:100E50008DF85B201A0748BF2B229AF8001048BF74
:100E60008DF85B202A2972D1059A11680432002975
:100E70000592C0F2A08009919AF801100AF1010AC6
:100E80002E2976D0DFF888910322484600F0F6FF3D
:100E900048B14022069BA0EB090002FA00F0034390
:100EA0000AF1010A06931AF8011B062259488DF827
:100EB000301000F0E3FF002800F08380564B002B39
:100EC0006CD005A9009132463846544B06A9AFF3C1
:100ED00000800390039B013307D00B9B039A9AF881
:100EE000001013440B93002981D1B3895B0615D4FC
:100EF0000B981FB0BDE8F08F00F056FD404B9E42AE
:100F00007FF456AF7E68B38918073FF55DAF314671
:100F1000384600F0E1FA00283FF45AAF4FF0FF30B6
:100F2000E7E7BE684CE7B9EB0A0BDED0D046CAF162
:100F3000010A03E0934538D918F8011F32463846B4
:100F4000FFF7ECFE01300AEB0802F3D1CDE7A1F187
:100F50003002092A94D8099B1AF8011F03EB830376
:100F600002EB4303A1F13002092AF5D92E29099396
:100F700088D19AF801102A292DD1059B0AF1020087
:100F80001A680433002A0593B8BF4FF0FF339AF86C
:100F9000021007928246B8BF079373E7059B073399
:100FA00023F007030833059397E70B9A99F800306D
:100FB0005A440B922BE7494243F0020309910693EE
:100FC0005AE705A9009132463846144B06A900F0AD
:100FD000CBF803907EE70023A1F13002092A0AF141
:100FE000010A07933FF64EAF1AF8011F03EB830384
:100FF00002EB4303A1F13002092AF5D9079341E737
:1010000038F9000818F90008F8F80008280B01085A
:10101000300B0108340B010800000000450D0008EA
:101020008C4600B586461346034A714610685DF843
:1010300004EB6246FFF7ACBE000C00202DE9F04740
:1010400091461E460A698B680C469A42B8BF1A46FA
:10105000C9F8002091F843300546DDF8208013B12F
:101060000132C9F80020226891065DD5D9F8003018
:101070000233C9F80030226812F0060F11461ED163
:10108000E168CB1A002BD8BF114618DD002704F108
:10109000190A06E0D9F80030E268A2EB030CBC455F
:1010A0000CDD0123524631462846C047013007F186
:1010B0000107EFD14FF0FF30BDE8F087216894F8C9
:1010C0004330003B18BF01238A060AD53021E218BD
:1010D00082F8431094F845105A1C2244023382F8D7
:1010E00043103146284604F14302C0470130E1D0A5
:1010F000236803F00603042B1DD0A36822699342E2
:1011000025DD00279B1A1F4404F11A09002401E081
:10111000BC421CDA01234A4631462846C04701300A
:1011200004F10104F4D1C5E712F0060F12D0003B20
:1011300018BF0123D5E7D9F80030E1682269C91A40
:10114000A36821EAE1779342DCDC0029DCDC0020A3
:10115000BDE8F087E168D9F80030CB1A002BD8BF82
:10116000114693DCABE700BF2DE9F04317460A7E3A
:1011700085B00C46064698460C9D01F1430C002AAA
:1011800033D0A2F15803D9B2202967D8202B65D8D3
:10119000DFE813F0DD0064006400640064006400B4
:1011A00064006400640064006400A3006E006400D6
:1011B0006400640064006E00640064006400640005
:1011C00021007F00BF0064006400AE0064007F0067
:1011D00064006400E40023681A0640F102812B6871
:1011E0006269191D29601B681A600023E1462361AA
:1011F0003B4621463046CDF8008003AAFFF71EFF8C
:10120000013020D04A46394630462369C047013074
:1012100019D02368E0689B07039919D5431A002B5E
:1012200016DD002504F1190904E0E0680399431A6A
:10123000AB420DDD01234A4639463046C0470130F6
:1012400005F10105F1D14FF0FF3005B0BDE8F083A5
:101250008842B8BF084605B0BDE8F083012384F892
:10126000422004F142092361002384F84330BFE7A0
:101270002368190602D45A0600F1BF8029680A685B
:10128000043129601146002A6ADB0A25DFF87CE177
:1012900010E02368180640F19A802B68191D296018
:1012A00019686F2A0CBF08250A25DFF860E10023C2
:1012B00084F843306268002AA2607DDB236823F053
:1012C00004032360002959D1002A77D1E146082D73
:1012D00063D0ACEB090323618AE701222B6804F198
:1012E0004209196804332B6084F842102261BBE77D
:1012F0002B6800211A1D2A60D3F8009062684846C6
:1013000000F0BCFD00287FD0A0EB090060602061E8
:10131000AAE7236843F0200323607822DFF8F0E097
:1013200084F845202A68111D2960190642D45D06FB
:1013300040D51188D80744BF43F02003236000291B
:1013400043D12368102523F020032360AFE75823FF
:10135000DFF8B8E084F845302368E3E72368DCE78A
:101360002D2284F8432062684942002AA26002DBF1
:1013700023F0040323600A25DFF890E0E146B1FB87
:10138000F5F30A4605FB131019461EF80030AA4271
:1013900009F8013DF3D2082D9BD12368D90798D5D0
:1013A000626823699A4294DC302309F1FF3989F895
:1013B00000308EE71168BDE70029DFD19EF80030CC
:1013C00004F1420984F8423081E710256FE713F0F9
:1013D000400F2B6803F1040129600CBF19681988BC
:1013E0005FE713F0400F2B68626903F10401296085
:1013F0001B6814BF1A801A60F7E62A68B2F9001059
:1014000004322A600A463EE7606880E73C0B010828
:10141000500B0108F8B506460D46144608B183691D
:1014200043B3254B9C422AD0244B9C4229D0244BC9
:101430009C4208BFF468A269A389A2601A0722D55A
:10144000236903B322686169D31AEDB299422F462A
:1014500029DD0133A1680139A160511C216015709B
:1014600062699A4216D0A389DB0701D50A2D11D0F3
:101470003846F8BD00F098FA0F4B9C42D4D17468FE
:10148000D9E7B468D7E72146304600F025F838B9E7
:101490002369D7E72146304600F024F90028E7D039
:1014A0004FF0FF37E4E72146304600F01BF90028F3
:1014B000F6D101232268CDE738F9000818F90008B1
:1014C000F8F8000803460A46024908681946FFF77B
:1014D000A1BF00BF000C00203C4B70B51D68064644
:1014E0000C460DB1AB69E3B1394B9C421FD0394B6F
:1014F0009C424DD0384B9C4208BFEC68B4F90C308C
:1015000018079AB219D5216911B312F001002FD032
:1015100000256069A5604042A06100292ED000200E
:1015200070BD284600F040FA294B9C42DFD16C6820
:10153000B4F90C3018079AB2E5D4D1063ED552075B
:1015400028D4216943F00803A3819AB20029DCD191
:1015500002F42070B0F5007FD7D02146304600F06D
:10156000FFFBB4F90C3021699AB212F00100CFD11F
:10157000950758BF6069A0600029D0D1120658BFF6
:101580000846CDD543F040034FF0FF30A38170BD36
:10159000AC68B3E7616B51B104F14402914204D0ED
:1015A0003046FFF7BBF8B4F90C300022626300222A
:1015B000216923F02403C4E90012C3E7092243F0A0
:1015C000400332604FF0FF30A38170BD000C00205B
:1015D00038F9000818F90008F8F80008F8B58B8900
:1015E0000C46190707463BD46268002A55DDE66AB7
:1015F000002E50D000223D683A6013F4805250D142
:1016000001233846216AB047421C5CD0A389E66AB0
:101610005B0705D56368C01A636B0BB1236CC01AF6
:101620000246216A00233846B047411C3BD13B6843
:10163000002B38D01D2B01D0162B4BD10023226953
:10164000C4E90023616B3D6029B304F1440399426E
:1016500002D03846FFF762F8002318466363F8BDEE
:101660002669C6B19A0718BF0023256808BF6369B9
:101670002660AD1BA3600CE02B463246D4F828C090
:101680003846216AE047B0F1000CA5EB0C05664432
:1016900012DD002DF0DC0020F8BD226C002AA6DC53
:1016A000F9E7606DB4E70022236962602360A389D3
:1016B000DB04C7D56065C5E7A3894FF0FF3043F071
:1016C0004003A381F8BD3B68002B9FD01D2B06D0A3
:1016D000162B04D0A38943F04003A381F8BD00205A
:1016E0003D60F8BD38B50B69BBB10C46054608B185
:1016F0008369B3B10D4B9C4211D00D4B9C4213D06A
:101700000C4B9C4208BFEC68B4F90C302BB121465D
:101710002846BDE83840FFF761BF002038BD6C683F
:10172000F2E700F041F9E5E7AC68EDE738F90008C9
:1017300018F90008F8F8000838B540B30369044602
:10174000E3B1174B1D680DB1AB69CBB1154B9C4292
:101750000FD0154B9C4221D0144B9C4208BFEC6823
:10176000B4F90C3053B121462846BDE83840FFF7A4
:1017700035BF6C68B4F90C30002BF4D1002038BDB3
:10178000284600F011F9074B9C42E2D1F1E7084BE3
:1017900008491868BDE8384000F0BEBAAC68DFE719
:1017A000000C002038F9000818F90008F8F80008C3
:1017B000F4F80008E516000800207047014900F021
:1017C000ABBA00BFE516000800207047682270B56C
:1017D0004D1E02FB05F50E4605F17401FFF704F8F6
:1017E000044640B100210C30C4E9016005F16802F3
:1017F0002160FEF741FF204670BD00BF274B2DE959
:10180000F0411E680746B36953B34FF004084836E9
:10181000D6E90134013B04D51EE05A1C04F16804EA
:101820001AD0B4F90C50013B002DF6D11C4B082204
:101830002946C4E90055C4E90253C4E90455656664
:10184000A56104F15C00FEF717FFC4E90D55C4E97A
:1018500012552046BDE8F08135682DB12E46D7E7F8
:10186000304600F01FF8D0E74FF4D6713846FEF747
:10187000BBFF044668B1056029460546C0F80480F0
:101880000C304FF4D072A060FEF7F6FE34602E46A6
:10189000BEE70C2330603B60DBE700BFF4F80008D4
:1018A0000100FFFF0023334A2DE9F0471268C0E929
:1018B00012339042036508BF01232F4908BF83619B
:1018C00081620546FFF79AFF034628466B60FFF7E3
:1018D00095FFA86028460024FFF790FF04236E6858
:1018E000DFF898A0DFF89890DFF89880264FE8603E
:1018F0000822F3602146C6E90044C6E90444746640
:10190000B460B46106F15C00FEF7B6FE1F4BC6E999
:10191000086AC6E90A983763AE680822F360214670
:10192000C6E90044C6E904447466B460B46106F1D3
:101930005C00FEF7A1FE164BC6E9086AC6E90A98E4
:101940003763EE682146F3600822C6E90044C6E921
:1019500004447466B460B46106F15C00FEF78CFE6A
:101960000123C6E9086AC6E90B87C6F82890AB616F
:10197000BDE8F087F4F80008BD17000855200008FE
:101980007D200008BD200008DD20000809000100BE
:1019900012000200024B0349186800F0BDB900BFF5
:1019A000F4F80008E5160008836903B97AE7704780
:1019B000704700BF704700BF704700BF704700BF4F
:1019C000024B0349186800F087B900BF000C0020E3
:1019D000B9170008024B0349186800F07DB900BF31
:1019E000000C0020C91700089368002B00F0B78096
:1019F0002DE9F04FB1F90C300C4619078046174617
:101A000083B098B225D523691BB310F002033D685B
:101A10002DD04FF0000B5E46DFF8B8A2002E00F08C
:101A20008B80564533465A4628BF53464046216A66
:101A3000D4F828C0E047002840F38780BB6883447F
:101A40001B1A361ABB60002BE8D1002003B0BDE89A
:101A5000F08F21464046FFF73FFD002840F03681D9
:101A6000B4F90C303D6898B210F00203D1D110F0F7
:101A7000010976D14E46002E5AD08205D4F808B01E
:101A800040F1B580B3455A4600F2CD8010F4906F16
:101A900000F0CB8023682169A3EB010B636903EBA2
:101AA000430A0AEBDA7A0BF101034FEA6A0A33447C
:101AB0005345524684BF9A465246430540F1EA8058
:101AC00011464046FEF790FE002800F0F9805A4685
:101AD00021690190FEF75AFDA289019B22F49062D0
:101AE00042F08002A28103EB0B0023613246AAEB95
:101AF0000B03B346C4F814A0A3602060B2460026CE
:101B00004946019200F002FAA3682168019AA3EB0A
:101B10000B030A44A3602260B868D144A0EB0A001A
:101B2000B860002891D0B4F90C0080B2002EA4D186
:101B3000D5E9009608359EE7D5E900B608356DE78A
:101B400021464046FFF7CEFD80B3B4F90C304FF08C
:101B5000FF3043F04003A38103B0BDE8F08F0020C5
:101B600070471E46AA46994618461D4656B3002899
:101B700032D04A4620682169B24228BF32468842A4
:101B8000636904D9A16803EB010B5A4574DC9342E5
:101B900065DC2A464046216AD4F828C0E047B0F107
:101BA000000BD2DDB9EB0B09CAD00120BB685D4444
:101BB000A3EB0B03A6EB0B06BB60002B3FF445AF7A
:101BC000002ED4D10AF1080353F8046C9A4653F856
:101BD000085C0833002EF7D032460A21284600F070
:101BE0004DF9002869D00130A0EB0509C1E7206854
:101BF000236998421BD86369B34218D86FF0004C30
:101C0000B44528BFB4469CFBF3FC4A4603FB0CF3E7
:101C10004046216AD4F828C0E047B0F1000A94DDBC
:101C2000A6EB0A0678E7B3463246206866E7B34576
:101C3000DA4628BFB2464946524600F067F9A36823
:101C40002268A3EB0A035244A3602260002BE7D171
:101C500021464046FFF746FD0028E1D075E72946BA
:101C60009346019200F052F9A368019A9B1AA3606F
:101C700023681A44226095E729465A4600F046F93F
:101C8000236821465B4440462360FFF72BFD002874
:101C900088D05AE7404600F0B5F9034600287FF4A3
:101CA00022AF40462169FEF739FD0C22B4F90C3011
:101CB000C8F8002023F0800349E7721C914659E7D9
:101CC0000C22B4F90C30C8F8002040E74FF0FF3088
:101CD000BCE600BF00FCFF7F2DE9F04100268846EE
:101CE00000F14807D7E90154013D0ED4A389013D15
:101CF000012B06D9B4F90E30013302D02046C0477B
:101D000006436B1C04F16804F0D13F68002FE9D151
:101D10003046BDE8F08100BF2DE9F8434FF00009DF
:101D20000746884600F14806D6E90154013D10D423
:101D3000A389013D012B08D9B4F90E30013304D039
:101D400021463846C04749EA00096B1C04F1680483
:101D5000EED13668002EE7D14846BDE8F88300BFD3
:101D6000F0B58B890C46990797B007D5012204F18D
:101D70004703C4E90432236017B0F0BDB4F90E1074
:101D8000054600292DDB6A460BF02DFE002827DBD7
:101D9000019E4FF4806706F47046A6F50056B6FA29
:101DA00086F6394628467609FEF71EFD30B3A3892C
:101DB0001A4A43F08003AA62C4E90407A3812060A1
:101DC000002ED9D02846B4F90E100BF018FE0028CA
:101DD000D2D0A38923F0030343F00103A381CBE70F
:101DE000A38913F0800F14BF40274FF48067284663
:101DF00039460026FEF7F8FC0028D8D1B4F90C309B
:101E00009A05B9D4012123F0030304F1470243F0FA
:101E10000203C4E90421A3812260ADE7BD170008D5
:101E200070B50C46B1F90E10164600291D4696B045
:101E300013DB6A460BF0D7FD00280EDB01994FF447
:101E4000806301F47041A1F50051B1FA81F10020E5
:101E500049092960336016B070BD0022B4F90C3016
:101E60002A601B0604D540230020336016B070BDE5
:101E70004FF480630020336016B070BD5FFA81FCC0
:101E8000810710D00346511E2AB90AE09A07184666
:101E90000AD0013905D3184613F8012B6245F5D154
:101EA000704700207047114603290CD80029F8D04C
:101EB0000346014401E08B42F3D0184613F8012B8E
:101EC0006245F8D1ECE7024610B54CEA0C2444EA2E
:101ED00004441046036804326340A3F1013E2EEA35
:101EE000030313F0803F04D1043903291046F0D8CE
:101EF00051B10346014401E08B4205D0184613F866
:101F0000012B6245F8D110BD002010BD88420DD9CB
:101F10008B1883420AD900EB020CBAB1624613F85F
:101F200001CD994202F801CDF9D170470F2A0ED8A0
:101F3000034602F1FF3C4AB10CF1010C013B8C4419
:101F400011F8012B614503F8012FF9D1704740EAE0
:101F500001039B074FD1A2F1100370B501F1200CD2
:101F600023F00F0501F1100E00F11004AC441B0921
:101F70005EF8105C0EF1100E44F8105C5EF81C5C0C
:101F8000103444F81C5C5EF8185C44F8185C5EF889
:101F9000145CE64544F8145CEAD1013312F00C0FEE
:101FA00001EB031102F00F0400EB031327D08E4660
:101FB000043C24F003064FEA940C1E441C1F5EF8F8
:101FC000045B44F8045FB442F9D10CF1010402F05F
:101FD000030203EB840301EB840102F1FF3C4AB1ED
:101FE0000CF1010C013B8C4411F8012B614503F805
:101FF000012FF9D170BD034602F1FF3C9CE7224658
:10200000EBE700BFF8B51446F9B1CAB106460D4674
:1020100000F068F8A04202D32F463846F8BD2146AA
:102020003046FEF7E1FB07460028F6D02246294657
:10203000FEF7ACFA30462946FEF770FB3846F8BD8D
:102040002746FEF76BFB3846F8BD1146BDE8F84061
:10205000FEF7CABB10B50C46B1F90E100BF0ABFC85
:10206000002803DB636D0344636510BDA38923F47B
:102070008053A38110BD00BF002070472DE9F041BF
:102080000C46B1F90C101F46CB05054616460BD47D
:1020900021F48051A1813B4632462846B4F90E1006
:1020A000BDE8F0410BF08EBCB4F90E100223002203
:1020B0000BF086FCB4F90C10EAE700BF10B50C4633
:1020C000B1F90E100BF07CFCA389421C0EBF23F467
:1020D000805343F480536065A38110BDB1F90E10A5
:1020E0000BF072BC51F8040C0028A0F10400BCBF36
:1020F0000B58C018704700BF114A137C834219D097
:1021000092F82C30834217D092F84830834215D190
:1021100002231C214B43D118886880B1D358FF2873
:102120001DBF584340000130013314BF48604B606D
:10213000012070470023ECE70123EAE70020704705
:10214000A00E002030B50D4C257C854210D094F8AF
:102150002C5085420ED094F8485085420CD1022074
:102160001C2505FB0044012061762276A37630BD54
:102170000020F5E70120F3E70020F8E7A00E00209B
:102180000C4B1A7C82420ED093F82C2082420CD049
:1021900093F8482082420AD102221C2000FB02331D
:1021A0000120996070470022F7E70122F5E700203F
:1021B000704700BFA00E00200C4B1A7C82420ED04C
:1021C00093F82C2082420CD093F8482082420AD106
:1021D00002221C2000FB02330120596070470022BC
:1021E000F7E70122F5E70020704700BFA00E0020AE
:1021F00010B50E4C237C834212D094F82C308342CD
:1022000010D094F8483083420ED102231C2043435F
:10221000E018E15000238260C3604374012010BDC8
:102220000023F3E70123F1E70020F8E7A00E0020E8
:1022300070B500252E462B4C6368002B4FD0E0680C
:1022400008BB637CB3FA83F35B09637409F036FC63
:10225000D4E900239342E0602BD266606674E660A6
:1022600063690BB1207C9847207CFF2824D1002291
:102270001146104607F062FA0735152D04F11C04CB
:10228000DAD1012070BD09F05DFC23689842D8D2F4
:102290006368002BE4D0204602F0C2FD0028EBD09A
:1022A000637C207CB3B1FF280CD1A27E217E607EAE
:1022B000E0E79B1A6360EBE75028DDD800231A465D
:1022C000194604E05028D7D8A37E227E617E06F00E
:1022D000BBFBD1E7FF28CAD05028CDD8EFE7637405
:1022E000E360C9E7A00E002007B503788DF8003041
:1022F00043788DF8013083788DF8023003798DF8BA
:102300000330C37868468DF804300DF065F903B0EA
:102310005DF804FB08B5074B5A78032A07D85868BC
:1023200009F010FCC72894BF0020012008BD002040
:10233000FCE700BFA40C00207047002280214FF072
:10234000804008B50BF0DFFCFFF7F6FF00BF00BFD1
:1023500000BF00BF00BF00BF00BF00BF00BF00BF85
:1023600000BF00BF00BF00BF00BF00BF00BF00BF75
:1023700008BD08B501F064FB08BD000008B5054CB8
:1023800020780CF021FC2078FFF7F3FF05200AF0FD
:102390000CFBF5E7083B002010B5084C236803F060
:1023A0007142074B1343236009F088FB054B18600B
:1023B0002068BDE8104004F076BA00BF083B00205A
:1023C0000001010E9810002010B5064C0122204695
:1023D00002210BF098FC0223A361BDE8104001F03C
:1023E000CDBB00BF0004004001207047124B10B568
:1023F0001C789CB9114B1B78042B0FD104F040F9C9
:1024000004F054F904F006F904F080F9204609F0CC
:10241000F5F92046BDE8104009F00CBA0DF0E0F8DF
:1024200048B10CF0C7FB0028FBD1BDE810404CF2CE
:1024300050300AF0BABA10BD083B0020A43E00207C
:1024400038B500230C46084D0B7030B109F036FB4F
:10245000002328602370002038BD286809F072FB33
:102460003228F3D8F7E700BFA8100020084B9A786D
:10247000012A07D0022A09D0064B1868B0FA80F06A
:102480004009704758780128F6D170470120FCE7D1
:10249000A40C00201012002008B5054B9B78013BCE
:1024A000012B02D9FFF7E2FF08BD0120FCE700BFC6
:1024B000A40C002008B509F001FB014B986008BD91
:1024C000A40C002010B5094C23782070637009F02B
:1024D000F5FA6060FFF7EEFF00F084FEBDE8104003
:1024E0000022034B53201A700CF0F6BFA40C0020FE
:1024F000A4100020F8B50C461546074660B3002925
:102500003FD0884201D0FFF771FF584E3378013B2E
:10251000012B04D80320FFF7D5FF0023B370544EDE
:102520003378A34200D11DB10022524B9A619A83A5
:10253000347024B1631E042B747098BFB47030687B
:1025400004F0B1F93378062B00F28980DFE803F05C
:10255000852A46505A646E000029D6D00222464B86
:10256000464E9A613378012BCDD030460BF0AAFB52
:1025700030460AF075FF4248424B836009F00CF97F
:10258000C1E74FF400323C4B3C489A610378042B7E
:10259000B9D03D4B3A4E19703C4BB36009F02EFD5B
:1025A0003046EBE7312075B10CF096FF52200CF06D
:1025B00093FF01200CF09CFF4EF2834143F22D402B
:1025C0000CF0ECFF51200CF087FFFFF773FF2A4659
:1025D0002146384601F0F4FE0120F8BD3220002DDE
:1025E000F1D00CF079FF52200CF076FF0220E1E7E9
:1025F0003320002DE7D00CF06FFF52200CF06CFF61
:102600000320D7E73420002DDDD00CF065FF5220E9
:102610000CF062FF0420CDE73520002DD3D00CF064
:102620005BFF52200CF058FF0520C3E73020002D3F
:10263000C9D00CF051FF122115480CF07FFF1C216E
:1026400014480CF093FF4EF2834143F22D400CF0FE
:10265000A5FF52200CF040FFB4E71120B3E7112092
:102660000CF03AFFFFF798FEAFE700BFA40C002084
:10267000083B0020640C002000040040A43E002021
:1026800064100020E9220008582B0020C1C0000877
:1026900058F900086CF90008002313B50DF1070183
:1026A0008DF80730FFF7CCFE044690B19DF8073057
:1026B000013B032B0DD8DFE803F002060F120022C6
:1026C0001146094B02E00022074B99781878FFF772
:1026D00011FF204602B010BD00220621F1E7024B97
:1026E00000225978F2E700BF083B002013B5124CD6
:1026F00020460CF0F1F90123A37704F0D1F80F4C38
:10270000206008B9FFF748FEE37843F00103E37067
:1027100009F0D4F90A4BFF22186000234FF4A87186
:1027200000930848084B0AF00DF9FFF706FE012058
:10273000FFF7B2FF02B010BD640C0020083B002080
:1027400098100020B01000207D23000848B1074AEF
:102750001378013B012B07D893782BB90320FFF79F
:10276000B1BE0122024B1A70704700BFA40C0020BA
:10277000A4100020014B1878704700BFA40C002063
:10278000014B9870704700BFA40C0020014B987853
:10279000704700BFA40C0020014BD870704700BFE9
:1027A000A40C00200122014B1A707047A4100020D5
:1027B000F8B51C4C1C4EE378B268C3F342031AB957
:1027C000FFF778FE0020F8BD184A52F8235023780E
:1027D0002BB9174B1B78042B01D1FFF76BFE154F5C
:1027E0003B7893B100233B704FF080431B69E27844
:1027F000DB0963F300022378E27073B101F0C0FFDC
:102800000028DFD101F04EF9DDE7002DDAD0B06805
:1028100009F098F9A842E5D2D4E7054B1B78042BC0
:10282000ECD1CDE7083B0020A40C002028FA0008DA
:10283000A43E0020A410002010B50B4B5A78012AAA
:1028400003D0022A08D0002005E09C78012C03D197
:1028500001F086F9204610BD586809F073F9C728C1
:10286000F1D9FFF703FEF6E7A40C002010B5074BE3
:10287000D87810F0FD0404D10220FFF723FE204693
:1028800010BD0320FFF71EFE0120F9E7A40C002075
:1028900038B50A4D0024EB78033B012B08D8032000
:1028A000FFF710FE2046AC7001F006F9012038BD9C
:1028B0000220FFF707FE2046F9E700BFA40C002026
:1028C00038B50A4D0024EB78033B012B08D80320D0
:1028D000FFF7F8FD2046AC7001F00EF9012038BD7D
:1028E0000220FFF7EFFD2046F9E700BFA40C00200F
:1028F00070B59D4C9D4D2068B0B109F023F9B0F53D
:10290000FA6F11D30026552026600CF0E5FD572004
:102910000CF0E2FD70200CF0DFFD29783246B1FAB0
:1029200081F04009FFF7E6FD2B7823B1904B93F837
:102930002020904B1A702368DBB98F4E306809F065
:1029400001F940F6B733984213D92B788BB10CF0CC
:1029500031F970B9864CA37F5BB109F0AFF83060F4
:1029600053200CF0B9FD94F8213013B970200CF00D
:10297000B3FD4FF080431B69EA78DB097F4C63F3BA
:1029800000020020EA70FFF787FE2378032B1ED891
:10299000DFE803F002284FA6E36833B1984720B17F
:1029A0000120FFF78FFD0023A370236933B19847FF
:1029B00020B10120FFF786FD0223A370636933B1C4
:1029C000984720B10120FFF77DFD0123A3700CF093
:1029D0007DFC6B4B1B78002B00F0C580BDE8704080
:1029E00002F0AEBEA369002BF1D098470028EED0CC
:1029F00002F03CF9634B187007F060FC2A78624BD8
:102A00001A7000225A4B9A772A68604B134063B9B8
:102A10005F4C2378012B08D002225E4B20469A613E
:102A20000BF050F920460AF01BFD0220FFF74AFD8B
:102A3000CDE7E369002BCAD098470028C7D0002211
:102A4000554B1A704FF080434FF400129A612A6878
:102A50004E4B1340B3F1807F10D0A37853B3013BAA
:102A6000012B0BD86378022B08D0FFF7BFFC112095
:102A70000CF032FD0CF09EF80028FBD100F0FCFFBA
:102A80000023E370404B2A781B789A4208D12A68C9
:102A90003E4B1340B3F1807F02D0A07800F0A0FC41
:102AA000A378012B19D0022B14D0002B8FD1FFF764
:102AB000DDFE8CE72E4B5B7E002BDFD111200CF06E
:102AC0000BFD0CF077F80028FBD147F2305009F0ED
:102AD0006CFFD3E7FFF7DCFE79E7FFF7F1FE76E75F
:102AE000236A002B3FF473AF984700283FF46FAF81
:102AF00001221F4B9A77234B1B782BB14FF0804359
:102B000020229A6107F0C8FB0120FFF7C5FD30B90C
:102B10002A780AB3697802460846FFF7EBFC0024DE
:102B20001D4B1C701D4BD3F8902042F40072C3F86B
:102B30009020D3F8902022F40072C3F8902000F087
:102B40008FFFFFF7B7FC00F04DFB2046FFF7BAFC04
:102B500053200CF0C1FC3AE70D4B1B78012BDED162
:102B600011466878D9E770BD98100020083B002016
:102B7000640C0020582B0020A0100020A40C002082
:102B80009D100020941000209C100020FF000001E8
:102B9000A43E002000040040A4100020000C0140CE
:102BA0000120704708B5FFF7FBFF08BD37B50446A5
:102BB0000D46FFF77FFC29462046FFF7F3FF60B183
:102BC000074B1A784AB1074B20461B78D909009168
:102BD000C3F30013A9780CF09DFB03B030BD00BF18
:102BE000083B0020143B002000B50B4B8FB0322176
:102BF00093F82130094A01A804F033FE01A808F037
:102C00001DF90BF0D3FF08F019F9054808F016F983
:102C10000FB05DF804FB00BF640C00208AF90008C7
:102C20009BF900082B4B13B51A7804464AB12A4B7E
:102C300001211B78DB09009300230CF06BFB02B031
:102C400010BD0028FBD0031FDBB2A02B12D8234BF2
:102C50000146186808F028FE20B1204603F0D2FC97
:102C600003F054FD204603F0C5FC02B0BDE810405F
:102C700003F04CBD00F12003DBB2072B07D800F0B6
:102C800007040120A040C0B203F0EAFCEDE700F128
:102C90005B03DBB2022B06D8243880B202B0BDE859
:102CA000104008F0ABBD00F15803DBB21A2B07D877
:102CB0000B4A32F8130002B0BDE8104008F0BABD6C
:102CC0003334E4B2122CBAD8012102B0BDE810406E
:102CD00002F01CBE083B0020143B0020100F002017
:102CE000F2F90008244B13B51A7804464AB1234B75
:102CF0001B78DB090093002319460CF00BFB02B094
:102D000010BD0028FBD0031FDBB2A02B06D803F0B8
:102D100079FC02B0BDE8104003F0F8BC00F12003DC
:102D2000DBB2072B07D800F007040120A040C0B297
:102D300003F09EFCEDE700F15B03DBB2022B05D84C
:102D4000104602B0BDE8104008F058BD00F158032D
:102D5000DBB21A2B05D8104602B0BDE8104008F0CF
:102D600069BD3334E4B2122CC9D8114602B0BDE8B3
:102D7000104002F0CBBD00BF083B0020143B0020F8
:102D80002DE9F3410446C0B1114E3378C3B1012798
:102D9000DFF84080204602F04AFD054698F80030F2
:102DA000E030DB09009301210023327880B207FA7A
:102DB00005F50CF0AFFAAC43ECD102B0BDE8F08100
:102DC00003F04EFC02B0BDE8F04103F09FBC00BF31
:102DD000083B0020143B00202DE9F3410446C0B11C
:102DE000114E3378C3B10127DFF84080204602F04E
:102DF0001EFD98F800300546DB0900930023E03003
:102E00001946327880B207FA05F50CF083FAAC4324
:102E1000ECD102B0BDE8F08103F02AFC02B0BDE8BD
:102E2000F04103F073BC00BF083B0020143B0020BE
:102E30002DE9F3410446C0B1114E3378C3B10127E7
:102E4000DFF84080204602F0F2FC054698F800309A
:102E5000E030DB09009301210023327880B207FAC9
:102E600005F50CF057FAAC43ECD102B0BDE8F081A7
:102E700003F00CFC02B0BDE8F04103F047BC00BF1A
:102E8000083B0020143B00202DE9F3410446C0B16B
:102E9000114E3378C3B10127DFF84080204602F09D
:102EA000C6FC98F800300546DB0900930023E030AB
:102EB0001946327880B207FA05F50CF02BFAAC43CC
:102EC000ECD102B0BDE8F08103F0E8FB02B0BDE850
:102ED000F04103F01BBC00BF083B0020143B002066
:102EE0002DE9F04104460D4601F04AFB00285AD175
:102EF0002378013B202B64D8DFE813F02100260063
:102F00005E0078007E008A008D008D008D006300D9
:102F1000E600920096009C00A700B200B500B80041
:102F2000C300CE00D700630063006300630063004A
:102F3000630063006300630063006300EB00002331
:102F400063700C23A37025E06378013B032B38D812
:102F5000DFE803F0020C0F2C08F0B0FD030EA370A5
:102F6000030CE370030A2371607113E007F02EFC79
:102F7000F4E72646A77804F11C08052F0AD8F8B212
:102F800004F010F8030AF37030710236B04507F10F
:102F90000107F2D1594B29461B782046002B40F0FF
:102FA000A98009F093F80120BDE8F0810023A37007
:102FB000E37023716371EDE76378022B04D0052B76
:102FC00010D0FF232370E5E7E378A07840EA0320E0
:102FD000237940EA0340637940EA036000BA07F0CE
:102FE000FCFBD7E7A07807F022FCD3E7E278A178D2
:102FF000607808F019F8B5E762792379A17843EA97
:1030000002235BBAE27860789BB208F023F8C1E74C
:1030100008F070F8BEE72946204607F083FCB9E7C0
:1030200008F0F1F86070B5E708F0EFF8030A637094
:10303000A070AFE76078A378E17840EA032040BA57
:10304000221D80B208F0E4F8A4E76078A378E17864
:1030500040EA032040BA221D80B208F0F3F899E755
:1030600008F003F996E707F0D3FFDBE76078A37871
:10307000E17840EA032040BA221D80B208F084F8CB
:1030800088E76078A378E17840EA032040BA221DFF
:1030900080B208F090F87DE7E278A178003A18BF96
:1030A0000122607807F0EBFF5CE762792379A17871
:1030B00043EA0223E2785BBA003A18BF0122607843
:1030C0009BB207F0FBFF65E701230D4A63701370A5
:1030D00060E762780B4B4AB1A1781A7819B142F0D7
:1030E00080021A7056E761F3C712FAE71B78C3F340
:1030F000C01327E70CF0CCFA55E700BF083B0020CF
:103100009D100020143B002010B54378044613B1F5
:10311000FF23237011E08378013B032BF8D8DFE80D
:1031200003F0021A28410378072B07D0082BEFD1B0
:103130002B4BDB78C3F34203C37010BDC178072962
:10314000FBD8BDE81040264BDA7861F34302DA7011
:10315000186803F0A8BB0378072B05D0082BD7D13C
:1031600001F01FFBE070E8E7C078BDE8104001F017
:10317000E7BB0378072B0AD0082BC9D14279017924
:10318000C07801F010FBA071000AE071D5E7C279A8
:103190008379017943EA0223BDE810404279C0787F
:1031A00001F017BB0378072B0DD0082BB0D1237982
:1031B000C078617940EA032040BAA21D80B2BDE820
:1031C000104001F01BBB2379C078617940EA0320ED
:1031D00040BAA21D80B2BDE8104001F02ABB00BF7A
:1031E000083B002008B508F069FC014B186008BDD9
:1031F00000120020164B10B51C788CB9154B1B78AB
:10320000052B08D0022B06D008F058FC124B186092
:10321000124B1C7010BD4FF080431B691B0603D47A
:10322000BDE81040FFF7DEBF0B4B18680028F7D051
:1032300008F088FC41F657339842EBD9FFF7D2FFEC
:10324000BDE810400122054B1A70FFF7ABBA00BF72
:10325000083B0020A43E00200012002004120020A1
:103260002DE9F0411B4C064625781DB1012420466E
:10327000BDE8F081FFF77EFA0138012805D8032068
:10328000FFF720F92846FFF77BFA94F80080B8F1A1
:10329000000FEBD1104D2B78052BE7D1B5F84C3052
:1032A0009B0702D50D4F3C7824B9FF2E94BF002414
:1032B0000124DCE7FFF75EFA0328D7D887F80080FF
:1032C000FFF790FF28460AF077F9284601F098F9B1
:1032D000CDE700BF083B0020A43E002004120020E0
:1032E000704700001A4B70B59C6C0F2644F4C06404
:1032F0009C649B6C012301F003048B4021F00301CB
:1033000001F1804101F5A0518D68A400C0F3832034
:10331000A04006FA04F425EA040528438860D8434F
:103320000C4912F0010F8C6814BF1C4304408C60E0
:1033300012F0020FCA6814BF1A430240CA60054A5D
:10334000536111680B43136053680340536070BDB1
:10335000000C0140001800400F281FD8DFE800F0E3
:10336000080C0F121518181818181B1B1B1B1B1BF9
:10337000062108460AF059BB06210720FAE7062174
:103380000820F7E706210920F4E706210A20F1E7E3
:1033900006211020EEE706212120EBE770470120EF
:1033A0007047000008B5FFF7FAFFA8B10122072116
:1033B0004FF08040FFF796FF0720FFF7CDFFFFF7A4
:1033C000E5F948B9054803220621FFF78BFFBDE860
:1033D00008400620FFF7C0BF08BD00BF0004004042
:1033E0002DE9F0473023054683F31188FFF7DAFF14
:1033F0004FF000090127904EDFF8408256F8043B59
:1034000095B1012D4FD143454DD123F00F0A03F063
:103410000F0307FA03F421460522504624040AF05C
:1034200072FCCAF8184001E0581CEED109F10109FC
:10343000B9F10F0FE2D106240127814EDFF8049283
:1034400056F8040B002D3AD0012D40F0E880484595
:1034500040F0E58000F00F01202207FA01F120F092
:103460000F000AF050FC00BF00BF00BF00BF00BF4C
:1034700000BF00BF00BF00BF00BF00BF00BF00BF54
:1034800000BF00BF00BF00BF00BF56F8040C0222FF
:1034900000F00F08414620F00F00FFF723FF4046E1
:1034A000FFF75AFF0DE0591CC0D003F00F01202296
:1034B00007FA01F123F00F000AF025FCB6E7421CE1
:1034C000C8D1013CBCD122464FF400615E480AF0ED
:1034D0001AFC00BF00BF00BF00BF00BF00BF00BF9D
:1034E00000BF00BF00BF00BF00BF00BF00BF00BFE4
:1034F00000BF00BF00BF03220B215348FFF7F2FEBD
:103500000B20FFF729FF84F3118872B64FF0E022F9
:103510000120136923F0010313614C4B4C4A5A619B
:103520000022A30003F1604303F56143D3F80011C7
:10353000D5B2012D94BF002101F0010109B1C3F8FA
:1035400080010132202AF1D10134082CE8D1414C0C
:10355000636843F0007363603F4B1A6802F009022E
:103560001A601A6842F46C3242F004021A6040F2A7
:10357000B3321A62394B43F001039847236943F091
:103580000403236130BF364B43F0010398474FF0EB
:10359000E022236923F0040323611369314C43F0D3
:1035A00001031361E36943F08003E361A36C43F417
:1035B0000073A36408F0B8FD03F028FD40F28232E6
:1035C0004FF4006120480AF09EFBE36C43F00803CF
:1035D000E364E36CA36C43F48053A364A36CE36CD7
:1035E00043F01003E364E36CFFF77AFE002383F3F8
:1035F000118862B6D4F8903043F4C063C4F89030B8
:10360000D4F8903023F4C063C4F89030D4F89030EC
:10361000A36C23F4C063A364A36CBDE8F087431CD0
:103620003FF44FAF00F00F01402207FA01F120F004
:103630000F000AF068FB44E748FA0008030800405E
:10364000E0FA00080D0800400008004000180040A3
:10365000FFFF070000ED00E000000140B8FA00089D
:1036600084FA0008000C01400120704701207047D7
:10367000C31F10B504460B2B18D8DFE803F0111751
:10368000171713171517171717060420FFF784F8D5
:103690002046FFF7E9FF10B12046FFF7E7FF10BD16
:1036A0000320F3E70220F1E70520EFE70120EDE733
:1036B00001238B40034202D00846FFF7D9BF704771
:1036C00008B50D4B5A69D20706D51A68002022F0BA
:1036D00001021A60FFF7CCFF4022084BC3F880209C
:1036E000BFF34F8FBFF36F8F0122034B5A61BDE8C9
:1036F000084009F04FBA00BF0018004000E100E0A8
:1037000008B50D4B586910F0020006D01A68012167
:1037100022F002021A60FFF7CBFF8022074BC3F8AA
:103720008020BFF34F8FBFF36F8F0222024B5A618D
:10373000BDE8084009F02EBA0018004000E100E0A2
:1037400008B50E4B586910F0040006D01A68022123
:1037500022F004021A60FFF7ABFF4FF48072084BAF
:10376000C3F88020BFF34F8FBFF36F8F0422034B4A
:103770005A61BDE8084009F00DBA00BF00180040CA
:1037800000E100E008B50E4B586910F0080006D0C3
:103790001A68032122F008021A60FFF789FF4FF42C
:1037A0000072084BC3F88020BFF34F8FBFF36F8FB9
:1037B0000822034B5A61BDE8084009F0EBB900BF8D
:1037C0000018004000E100E008B50E4B586910F009
:1037D000100006D01A68042122F010021A60FFF7C8
:1037E00067FF4FF48062084BC3F88020BFF34F8F10
:1037F000BFF36F8F1022034B5A61BDE8084009F0F8
:10380000C9B900BF0018004000E100E038B5254B01
:103810005C69A20604F4787507D51A68052122F0C0
:10382000200228461A60FFF743FF600608D51D4AAC
:1038300006211368284623F040031360FFF738FF82
:10384000210608D5174A07211368284623F080036C
:103850001360FFF72DFFE20508D5124A082113680F
:10386000284623F480731360FFF722FFA30508D5D1
:103870000C4A09211368284623F400731360FFF7EC
:1038800017FF4FF48032084BC3F88020BFF34F8FEF
:10389000BFF36F8F4FF47872024B5A61BDE8384026
:1038A00009F078B90018004000E100E038B52A4B73
:1038B0005C69620504F47C4507D51A680A2122F484
:1038C000806228461A60FFF7F3FE230508D5224AD6
:1038D0000B211368284623F400631360FFF7E8FE0A
:1038E000E00408D51C4A0C211368284623F48053B1
:1038F0001360FFF7DDFEA10408D5174A0D211368F8
:10390000284623F400531360FFF7D2FE620408D563
:10391000114A0E211368284623F480431360FFF7F1
:10392000C7FE230408D50C4A0F211368284623F448
:1039300000431360FFF7BCFE0222084BC3F884204B
:10394000BFF34F8FBFF36F8F4FF47C42024B5A612E
:10395000BDE8384009F01EB90018004000E100E061
:1039600008B50E4B586910F4802006D01A68122151
:1039700022F480221A60FFF79BFE0822084BC3F84E
:103980008420BFF34F8FBFF36F8F4FF48022034B20
:103990005A61BDE8084009F0FDB800BF00180040BA
:1039A00000E100E010B5074C23784BB901F09CF919
:1039B00001F05BFF07F0F6FE01F058FF01232370D2
:1039C000012010BD0712002010B5044C23781BB154
:1039D00001F0C8FD00232370012010BD0712002054
:1039E00038B5154C00252378032B22D8DFE803F0E7
:1039F000020B131B0A2311484370857007F0F6FE73
:103A00000123237038BDF6230C488370457007F0FE
:103A1000EDFE0223F5E7F62308484370857007F0B2
:103A2000E5FE0323EDE70A2304484570837007F0A1
:103A3000DDFE2570E6E700BF051200201C12002005
:103A4000054B1B7833B1054B1B780BB9FFF7C8BF8B
:103A50000BF00CBD704700BF0A120020083B00208D
:103A600008B5044B1B780BB9FFF79CFF01F05CFD18
:103A700008BD00BF0712002008B5064B1B780BB12C
:103A8000FFF7A2FF0023044A1370044A136001F0F9
:103A900049FD08BD07120020141200201812002052
:103AA0000120704708B5FFF7FBFF08BD014B1878F0
:103AB000704700BF08120020014B1870704700BF0C
:103AC00008120020014B1878704700BF091200202F
:103AD000084B10B50446187058B9FEF74BFE022883
:103AE00007D80320FEF7EEFC2046BDE81040FEF7A5
:103AF00047BE10BD09120020FFF7EABF024B18783D
:103B000080F00100FFF7E4BF09120020084B1A788B
:103B1000084B1B784BB982F00102A0F5A443203B6F
:103B20001F2B8CBF1046012070470022F5E700BF15
:103B3000091200200812002000231946064A937239
:103B400013609375D360054A0333212B917242F8B9
:103B50000C1BF9D1704700BFF80E0020C80C0020E4
:103B600008B503F0C3FAFFF7E7FF0022014B1A6024
:103B700008BD00BF101200200120704708B5FFF7F4
:103B800011FFFEF7B3FD01F0B1F848B10122202189
:103B90004FF080400AF0B7F84FF0804320229A613E
:103BA00008BD000000230D4A10B513700C4A4FF0F9
:103BB000804413700B4A136006F098FB01280AD06A
:103BC00006F08CFB4FF40013A36101F0D5F8BDE8BB
:103BD000104002F00ABF2023F6E700BF06120020C3
:103BE0000B1200200C12002008B502F0C3FE04F0F6
:103BF000F9FE02F04EFE054B188001F049F818B1AD
:103C0000BDE80840FFF7CEBF08BD00BF143B002051
:103C100037B504460D4601F067F9002800F0D28060
:103C2000002D00F0CF8047F615639C423ED8B4F5D6
:103C3000FC4F07D247F603439C4200F0C080284661
:103C400003B030BDA4F5FC44152CF8D801A353F8FB
:103C500024F000BFC33C0008EF3C0008133D0008FF
:103C6000373D00085D3D0008833D00083F3C0008EB
:103C70003F3C00083F3C00083F3C00083F3C000838
:103C80003F3C00083F3C00083F3C00083F3C000828
:103C90003F3C00083F3C00083F3C00083F3C000818
:103CA000A93D0008B13D0008B93D000847F643634F
:103CB0009C42C4D10122444B1A700022434B1A602B
:103CC000BDE7002301200DF107018DF80730FEF755
:103CD000B7FB9DF80730042B02D013F0FD0FAED1D7
:103CE000012211463A4B1878FEF704FCA7E700239F
:103CF00001200DF107018DF80730FEF7A1FB9DF8BB
:103D00000730042B02D013F0FD0F98D101220221BD
:103D1000E8E7002301200DF107018DF80730FEF7D9
:103D20008FFB9DF80730042B02D013F0FD0F86D1D6
:103D300001220321D6E7002301200DF107018DF8B0
:103D40000730FEF77DFB9DF80730042B03D013F0FE
:103D5000FD0F7FF474AF01220421C3E7002301208B
:103D60000DF107018DF80730FEF76AFB9DF807306B
:103D7000042B03D013F0FD0F7FF461AF0122052166
:103D8000B0E7002301200DF107018DF80730FEF7A1
:103D900057FB9DF80730DA1E012A02D9002B7FF469
:103DA0004EAF012206219DE70020FFF791FE46E776
:103DB0000122084B1A7042E7FFF7A0FE3FE7FFF72A
:103DC00013FF3CE705463AE70B1200200C120020D7
:103DD000083B00200912002070B5FEF789FD002580
:103DE00001261C4C206858B1A37A4BB907F0AAFEF3
:103DF0006368984204D301212089A672FFF708FF67
:103E00000335062D04F10C04ECD100250126124CDB
:103E1000206858B1A37A4BB907F094FE63689842C2
:103E200004D301212089A672FFF7F2FE0335212D6C
:103E300004F10C04ECD1094B1A783AB100221A7043
:103E40000AF0B8FE0028FBD1FFF7CEFE01F02EF8F5
:103E500070BD00BFF80E0020C80C00202112002009
:103E600008B5064B1B780BB9FFF79CFD4FF080435C
:103E700020229A61BDE8084007F0ECBD071200203F
:103E80002DE9F7430D46AB4A897804461368E9B13A
:103E9000032B00D80133A84F1360FEF70BFB3889C2
:103EA000844217D0B88A84420CD1012695F802804A
:103EB0004FF00C09B8F1000F0ED007F0FFFD09FB21
:103EC00006F6B8519D4B00261F4633E0002BE2D08A
:103ED000013BE0E70026E9E709FB06F607EB0609E8
:103EE00099F80A300BB9BB51ECE74146FFF790FE59
:103EF00089F80A8047F806800028E3D1002003B043
:103F0000BDE8F08309FB06F607EB060999F80A30CD
:103F10000BB9BB511DE041462046FFF779FE89F8F9
:103F20000A8047F80680A0B9E8E701360B2E03F1B6
:103F30000C030ED01A899442F7D195F802804FF005
:103F40000C09B8F1000FDDD007F0B8FD09FB06F64B
:103F5000B85129462046FFF7D9FD0028CED0294682
:103F6000204600F0C5FF0028C8D047F607639C42F2
:103F70002DD8B4F5FC4F1BD247F620039C4200F02D
:103F8000188147F603439C42B8D02946204600F0EA
:103F9000F7FC0028B2D029462046FFF761F9002837
:103FA000ACD02946204603B0BDE8F043FEF7FEBD85
:103FB000A4F5FC44013CAB78062C31D8DFE814F0C2
:103FC0004E00690084009F00C600E1002D00A4F5AA
:103FD000FC43403B9AB2032AD7D8032BD5D801A281
:103FE00052F823F0F53F0008014000080D4000089A
:103FF000FD3E0008AB78002B80D0FEF7F5FD7DE795
:10400000AA784F4B02B101221A7077E7AB78002BE8
:104010003FF474AFFEF7C6FB70E74A4A13706DE7D2
:10402000002B3FF46BAF484C2378012B3FF466AF75
:10403000002301200DF107018DF80730FEF700FA8B
:104040009DF80730042B03D013F0FD0F7FF456AF1B
:10405000002201212078FEF74DFA4FE7002B3FF4B4
:104060004DAF394C2378022B3FF448AF0023012099
:104070000DF107018DF80730FEF7E2F99DF80730E2
:10408000042B03D013F0FD0F7FF438AF0022022180
:10409000E0E7002B3FF432AF2B4C2378032B3FF4A7
:1040A0002DAF002301200DF107018DF80730FEF739
:1040B000C7F99DF80730042B03D013F0FD0F7FF4F0
:1040C0001DAF00220321C5E7002B3FF417AF1E4CA4
:1040D0002378042B3FF412AF002301200DF10701D8
:1040E0008DF80730FEF7ACF99DF80730042B03D0AC
:1040F00013F0FD0F7FF402AF00220421AAE7002B8A
:104100003FF4FCAE104C2378052B3FF4F7AE0023B0
:1041100001200DF107018DF80730FEF791F99DF8A8
:104120000730042B03D013F0FD0F7FF4E7AE00221D
:1041300005218FE710120020F80E0020C80C002087
:104140000A12002006120020083B0020002B3FF43A
:10415000D5AE1F4C2378062B3FF4D0AE00230120B0
:104160000DF107018DF80730FEF76AF99DF8073069
:10417000DA1E012A02D9002B7FF4C0AE00220621EC
:1041800068E7002B3FF4BAAE114C2378002B3FF4C4
:10419000B5AE002501200DF107018DF80750FEF79F
:1041A0004FF99DF80730012B3FF6A8AE2A46294665
:1041B00050E7AB78002B3FF4E8AE06F097F84FF0ED
:1041C000804318B14FF400129A61DEE62022FBE72B
:1041D000083B0020014B1878704700BF14120020E4
:1041E00001207047F8B505460C46574E574F2146FB
:1041F0002846FFF7F5FF50B1062C08D8DFE804F099
:1042000004084F91919E9E0000224F4B1A60F8BD0A
:10421000326862BBA5F12703092B0DD8DFE803F054
:10422000220C0C0C0C0C0C1D18050022FF2311464F
:104230003020FDF787FF01224FF4FA712846FDF781
:10424000D7FF2846FDF758FF07F038FC3060DEE75F
:104250000022FF2311462F20EBE70022FF23114607
:104260002E20E6E70023FF2219462720E1E710462B
:1042700007F068FC47F22F53984203D90524344BCA
:104280001C70B4E77B7E0BB10324F8E7314B1B783D
:10429000002B4FD02846BDE8F840FDF72DBF306811
:1042A00090BBA5F12703092BB1D801A252F823F046
:1042B000FF4200080F4200080F4200080F420008AA
:1042C0000F4200080F4200080F420008F5420008A4
:1042D000EB420008D94200080022FF23114630209B
:1042E000FDF730FF0122C821A8E70022FF23114675
:1042F0002F20F5E70022FF2311462E20F0E70023B0
:10430000FF2219462720EBE707F01CFC47F22F534A
:10431000984201D90624B2E77B7E002BB6D0042454
:10432000ADE7FF224FF4FA612846FDF761FF28460A
:10433000FDF7E2FE0022064B1A7068E70022044BEC
:104340001A70FEF72FFAA5E718120020640C00205F
:1043500014120020083B00200120704770B506466B
:104360000D4630200021FDF727FF10B9002420461C
:1043700070BD00212F20FDF71FFF0028F6D000217F
:104380002E20FDF719FF0028F0D000212720FDF78F
:1043900013FF0028EAD029463046FFF7DDFF044628
:1043A0000028E3D00022044B29461D70034B304601
:1043B0001A60FFF717FFDAE7141200201812002026
:1043C00070B50C461546FEF70FF8064680B17CB175
:1043D000134B5B7E13BB013C052C09D8DFE804F0CE
:1043E000030C120808182DB102213020FFF7B6FF88
:1043F000304670BD0121F8E715B102212F20F5E705
:104400000121FBE715B102212E20EFE70121FBE797
:1044100015B102212720E9E70121FBE71E46E7E766
:10442000640C002008B5094B1B786BB9FEF7A2F9A4
:1044300050B9074B1A783AB1064A527E22B95978D8
:10444000BDE80840FEF756B808BD00BF14120020B2
:10445000083B0020640C0020704700002DE9F04F5D
:10446000424F85B005460E46FFF7F6FFFFF7DAFF2D
:104470003C78002C32D03E4D2B6813B907F01EFB60
:104480002860286807F05EFB41F28733984205D91F
:104490003B7801333B7007F011FB28603B78013B10
:1044A000032B17D8DFE803F0020C1014002296202B
:1044B000114605F043F90024204605B0BDE8F08F11
:1044C000002296211046F4E7002196220846F0E7E4
:1044D0009622F6E700243C702C60EDE7254B1B7814
:1044E0008BB931462846FFF747FB0028E3D0314619
:1044F000284600F0EDFF04460028DCD0314628466F
:10450000FDF796FED8E722462146204601AF05F08A
:1045100015F9BA464FF00A08DFF85CB0DFF85C9096
:104520000A2259465046FCF731F899F81F30E2B29A
:10453000B3FBF8F1914214D9312B38780AD9002312
:1045400096221946013404F07FFA0A2C07F101077C
:10455000E6D1C6E71D2B4FF00003F1D81A4696218D
:10456000F0E7002338781A461946EBE70B120020D3
:104570000C12002006120020F8FA0008640C00203B
:1045800070B505460E46FDF795FFFEF7F3F810B13E
:104590000320FDF797FF2B780A2B0ED10124084B3F
:1045A00031461C70074B28461B781BB907F08EFD5F
:1045B000204670BD0BF06CF8FAE70020F9E700BF69
:1045C00021120020083B0020012810B5044611D01C
:1045D00002280AD1FEF7CEF80138012805D80320B9
:1045E000FDF770FF0020FEF7CBF82046BDE8104035
:1045F00007F00ABA014B1870F7E700BF60100020FF
:10460000014808F0D2B900BFA08601000E4BF0B5FA
:104610001B6893B11E2202FB00300C4A0123164690
:1046200030F8115032F8027BDCB2AF4206D104F010
:10463000070336F8133020F81130F0BD0133092B91
:10464000F0D10023F7E700BF24120020E8FD0008A6
:104650002DE9F74304460D4605F0C4FE00274FF050
:104660001E092D4EDFF8B4807080E0B2854250D92B
:1046700000232B4A0FE01CF801EBBEF1FF0F01D025
:1046800070451BD001310F29F5D10133DBB2062B68
:1046900002F10F023BD094460021ECE7012A07D13A
:1046A000012B05D173888DF800708DF8017016E02C
:1046B0008DF801308DF80010738810E0D8F80020D4
:1046C0002AB309FB032333F81120110AD3B2120ACB
:1046D000E4D1002BECD18DF800308DF801308DF84D
:1046E0000230009803F094FCC0F307238DF8040017
:1046F000C0F307408DF805308DF806009DF80630B0
:1047000020469DF804209DF8051004F09DF9013421
:10471000ABE703B0BDE8F0834C0D0020241200206D
:10472000500D002070B40D461143014304D170BCFC
:10473000B4220A48FBF7A0BF00241E260F2306FB65
:1047400004F10648013B13F0FF0305704270084472
:10475000F8D10134062CF1D170BC7047281200202A
:1047600010B5064A0B461478012C05D15878097803
:10477000FFF74CFF204610BD0020FCE74C0D002049
:10478000024B1878431E5842584170474C0D002088
:10479000B4235843C1EB01111144223000EB410016
:1047A000704704207047032838B510D805290ED863
:1047B0000E2A0CD8FFF7ECFF054603F05FF804461D
:1047C000681C03F05BF844EA002080B238BD00208A
:1047D000FCE7032870B51C460FD805290DD80E2A12
:1047E0000BD8FFF7D5FF0546E1B203F0AFF8210A79
:1047F000681CBDE8704003F0A9B870BD2DE9F8430E
:10480000002405460F461646A14600F12208BC4288
:1048100008EB040001D1BDE8F8832B19B3F5347F10
:1048200004DA03F02BF830550134F0E706F8049071
:10483000FAE72DE9F04105460E461746002400F13F
:104840002208B44208EB040001D1BDE8F0812B1925
:10485000B3F5347F02DA395D03F078F80134F0E71C
:10486000032806D8B422504300F12201014803F086
:1048700053B8704728120020032838B50CD80849CF
:1048800000230C78012C07D14D78A84206D10B707B
:10489000FFF7E6FF204638BD0020FCE71846FAE7A0
:1048A0004C0D0020032806D8B422504300F1220109
:1048B000014803F079B8704728120020074B084AD6
:1048C00010B51A600023074C2370607005F08AFD54
:1048D00060806078BDE81040FFF7E4BF241200203C
:1048E000281200204C0D0020032808B50CD8074AD8
:1048F0005070FFF7D7FF05F023FD2D2802D02D20A3
:1049000005F01BFD012000E0002008BD4C0D00203B
:10491000032810B510D8094A117869B901245070DC
:104920001470FFF7BFFF05F00BFD2D2802D02D20DE
:1049300005F003FD204600E0002010BD4C0D0020D6
:10494000032810B5044609D8FFF7ACFF2046FFF74F
:1049500093FF2046BDE81040FFF7C6BF10BD000022
:1049600008B5054801F0AEFFBDE808404FF43472C9
:104970002221024802F0D0BF03FB0008B601010863
:1049800008B50A4609490346087801280CD1A3F561
:10499000A443203B1F2B06D9907820B15078117882
:1049A000FFF734FE002008BD0120FCE74C0D00207D
:1049B00070B504460078FF2801D105F0C1FC0D490F
:1049C00000220D4611F8016BD3B2864203D00132AA
:1049D000102AF7D113462278FF2A12BFFF22013393
:1049E00003F00F03E85C18BF2270BDE8704005F0CB
:1049F000A4BC00BF06FE000838B50B780546FF2BA7
:104A00000C4602D105F09CFC2070284638BD38B514
:104A100040F2F62440F2063520460021013402F02F
:104A200058FFAC42F8D138BD10B505F089FC002321
:104A30000246054911F8014BD8B2944203D0013324
:104A4000102BF7D1184610BD06FE000810B504461D
:104A5000FFF7EAFF2146BDE8104000F2F62002F021
:104A600038BF08B5FFF7E0FF00F2F62002F006FFBE
:104A7000082828BF002008BD70B505F061FC072399
:104A8000124A12F8011B81421DD0013B13F0FF03B3
:104A9000F7D10724FFF7E5FF0130B0FBF4F304FB87
:104AA00013040B4B13F8145003EB44035E7805F02A
:104AB00099FC31460246284605F085FCE0B2BDE887
:104AC0007040FFF7C3BF0624E4E700BF16FE0008EE
:104AD000F8FD000838B5FFF76BFFFFF7C2FF074B83
:104AE00013F8104003EB40035D7805F07BFC29468A
:104AF00002462046BDE8384005F065BCF8FD0008D8
:104B00002DE9F0431C4B85B01B7823B3002201AC88
:104B10001146104604F012FE0025A0460A26DFF8D2
:104B20005C90174F0A2249464046FBF72FFDFB7F5A
:104B3000EAB2B3FBF6F1914200D8BAB9312B207832
:104B40000DD9002396221946013503F07DFF0A2D69
:104B500004F10104E6D1012005B0BDE8F0831D2B6E
:104B60004FF00003EED81A469621EDE70023207897
:104B70001A461946E8E700BFDC120020F8FA0008E0
:104B8000640C0020F8B5244E04463578042D30D846
:104B9000DFE805F0033C23343C0006F00BFE1F4F1A
:104BA000C0F34006387800F042FE022818BF1C4BC4
:104BB00038781CBF1D78C5F3001500F038FE821E42
:104BC00053423146534120462A46FDF7BBFAFF22A5
:104BD00032212046FDF70CFB0BE0FF231A46194655
:104BE000FDF7B0FA0322C8212046FDF701FB01239F
:104BF00033702046BDE8F840FDF77EBAFF231A4621
:104C00001946FDF79FFA0122C821E2E7002333701D
:104C1000FFF7B8FFEDE700BFDE120020EE12002024
:104C2000143B0020FF2810B504461BD10E4B1B6D12
:104C300023F07F43B3F5804F0DD10022402311466E
:104C4000FDF780FA20460121FDF79AFA2046BDE8DB
:104C50001040FDF751BAB3F5800F03D10023402275
:104C60001946EDE710BD00BFA00E0020034B1878D9
:104C700010F0030018BF0120704700BF303B002038
:104C8000024B40F2F220196802F07CBE103B00207B
:104C900007B5FDF781FB04238DF8043050238DF810
:104CA000053096238DF80630019803F0B1F90D4ACE
:104CB000C0F30721C0F30743107051709370C9B25D
:104CC000DBB2C2B2FF20FDF73DFA0322FA21FF203A
:104CD000FDF78EFAFF20FDF70FFA012003B05DF813
:104CE00004FB00BF0C3B00200120704708B52022C8
:104CF0004FF400414FF0804009F005F84FF0804339
:104D00001B69034AC3F3C0330120137008BD00BF01
:104D1000DD12002008B5054B00211870FB20FDF7BF
:104D20004BFABDE80840FB20FFF72CBFDE12002045
:104D30000020FFF7EFBF000010B500240B4A1388D6
:104D400003F0800363F0F8031380FFF799FF084B2B
:104D50001C70FFF7EDFFFFF75AFE064B2246214677
:104D6000BDE810401878FDF7C5BB00BF103B002020
:104D7000E4120020083B002038B5244C01222046D4
:104D80004FF4007108F0BFFF4FF40073204DA36192
:104D900001221021284608F0B6FF102320460122E8
:104DA0004FF48071AB6108F0AEFF4FF480732022A6
:104DB000A3614FF400414FF0804008F0A4FF4FF092
:104DC00080431B69134AC3F3C03340F2F2201370CF
:104DD00002F072FD104C206008B9FFF7ADFF20789B
:104DE000C0F3C300FFF76AFDFF22C821FB20FDF7D7
:104DF000FFF9FB20FDF780F92378012013F0020F63
:104E000014BF0A220122054B1A8038BD000400405D
:104E100000080040DD120020103B0020F40E0020AE
:104E20001E4A08B503461078002834D11A7CFB2AA4
:104E30002BD15A7CEAB11A4A1278052A0FD0597E32
:104E4000184A69B910219161197E174A59B94FF46E
:104E5000007191619B7E4BB94FF48073936108BDE3
:104E60004FF48011EFE74FF00071F2E74FF08073DD
:104E7000F4E710220B4B9A614FF40072A3F58063A4
:104E80009A614FF480729A61E9E7FFF779FC80F04C
:104E90000100C0B2E3E70020E1E700BFE512002017
:104EA000A43E002000080040000400404FF0804372
:104EB0001B690B4A10B5C3F3C0331370FDF75AFCDE
:104EC00060B9084C206806F03DFEB0F57A7F05D940
:104ED00006F0F4FD206053200AF0FEFA012010BD18
:104EE000DD120020E0120020A83818BF0120704712
:104EF00070B5BE4D04462B780E463BB18B782BB176
:104F00000022114610462A7004F018FC47F61D6373
:104F10009C421BD8B4F5FC4F1AD247F62A039C4298
:104F200000F2998047F620039C4255D845F20223AF
:104F30009C4200F019826BD8E72C00F08881B4F510
:104F4000A44F00F0F381E32C00F06A81012492E089
:104F5000A4F5FC441D2CF9D801A353F824F000BF9C
:104F6000BF50000803510008435100084D4F00088E
:104F70004D4F0008AB510008835100087D520008D6
:104F80004D4F00084D4F00084D4F00084D4F000891
:104F90004D4F00084D4F00084D4F00084D4F000881
:104FA0004D4F00084D4F00084D4F00084D4F000871
:104FB0004D4F00084D4F0008B3530008F753000849
:104FC0001B5400083F5400089D520008AB520008D3
:104FD000A150000871500008A4F5F044213C092CB0
:104FE000B4D801A353F824F0815300084D4F0008B2
:104FF0008F5200084D4F00084D4F00084D4F0008DC
:10500000F552000809530008BB520008D5520008A9
:1050100045F223239C4200F03B8247F213039C425B
:1050200000F0EE8045F221239C428FD1B378002B13
:105030008CD1FFF7A5FB002888D06D4B1A7832B1D0
:105040000022314645F221201A70FFF789FB01202A
:10505000674B18707AE7B4F5F84F7FF477AFB47800
:10506000002C3FF473AF01F057FF06F083FD02E020
:10507000B37813B90024204670BD5E490B7883F0E5
:105080000202C2F3400262F3410313F0020F14BFA5
:105090000A2201220B70584B1A80FFF7F1FDE9E755
:1050A000B478E5202CB100F0C3FA872000F0C0FAF4
:1050B000E0E700F0D3FA872000F0D0FADBE7FFF753
:1050C0005FFB04460028D5D1B378002B3FF43EAFF8
:1050D0004A4B1B78012B7FF439AFFFF77BF8002890
:1050E0007FF434AF402330201A461946FDF72AF8E2
:1050F000022296213020FDF77BF83020FCF7FCFFE0
:10510000B9E7FFF73DFB04460028B3D1B378002B85
:105110003FF41CAF394B1D78022D7FF417AFFFF71A
:1051200059F800287FF412AF40232F201A46194661
:10513000FDF708F82A4696212F20FDF759F82F2071
:10514000DCE7FFF71DFB0446002893D1B378002B62
:105150003FF4FCAE294B1B78032B7FF4F7AEFFF72F
:1051600039F800287FF4F2AE40232E201A46194663
:10517000FCF7E8FF022296212E20FDF739F82E20B9
:10518000BCE7FFF7FDFA00287FF474AFB378002B7B
:105190003FF4DCAE194B1B78002B7FF4D7AEFFF742
:1051A00019F8041E18BF012465E7FFF7E9FA044661
:1051B00000287FF45FAFB378002B3FF4C7AE0F4BEE
:1051C0001B78062B7FF4C2AEFFF704F800287FF4AB
:1051D000BDAE402327201A461946FCF7B3FF022232
:1051E00096212720FDF704F8272087E7E512002005
:1051F000E4120020103B0020F40E0020083B0020A9
:10520000B478002C3FF4A2AE002340211A46FF20C0
:10521000FCF798FF0121FF20FCF7B2FFFF206DE7AC
:10522000A54B187800F003FB02287FF48FAEA34B48
:105230001B78DA067FF58AAEFFF7A2FA00287FF422
:1052400085AEE320B478B4B100F0F2F913E79A4BDD
:10525000187800F0ECFA02287FF478AE974B1B78B0
:10526000DB067FF573AEFFF78BFA00287FF46EAE96
:10527000E720B478E7E700F0F1F967E6904B1B7898
:1052800003B1B3788F4A03F001031370F2E6B378E9
:10529000002B3FF45BAEFFF7EFFBEBE6B378002BA0
:1052A0003FF4E8AE01232B70E4E6B378002B3FF423
:1052B000E1AE62200AF010F9DCE6B378002B3FF48F
:1052C00045AE05F015F9FF287FF440AE0220FFF748
:1052D00021FD3BE6B378002B3FF438AE05F008F92A
:1052E00033283FF633AE0220FFF714FD332005F0DC
:1052F000F7F8BFE6B378002B3FF428AE05F072F85C
:1053000077287FF623AEE1E7B478002C3FF41EAE99
:1053100005F068F81E283FF619AE0220FFF7FAFCE8
:1053200000221146104604F009FAA4E6B378002BD7
:105330003FF4A0AE604C207800F079FA02287FF4A8
:1053400099AE207800F073FA30B9022000F0E0F94D
:10535000002000F0B4FD8DE6207800F068FA022805
:105360007FF488AE0020F1E7B378002B3FF482AEE3
:10537000514C207800F05BFA02283FF47BAEE0E766
:10538000B378002B3FF489AE4F4C0020FFF7C2FCEE
:105390002078C0F3C300FFF785FA2078C0F3C3007C
:1053A000FFF76AFA0022494B601C1A70FFF792FB64
:1053B00073E6B378002B3FF45DAE434C2078C0F326
:1053C000C300FFF76FFA2078C0F3C300FFF754FA69
:1053D0000020611CFFF710FB237860F3C6032370E5
:1053E000FFF74EFC2078C0F3C300FFF77DFA0020E2
:1053F000FFF790FC3EE6B378002B3FF43BAE324C17
:105400002078C0F3C300FFF74DFA2078C0F3C30043
:10541000FFF732FA0120611CDCE7B378002B3FF480
:1054200029AE294C2078C0F3C300FFF73BFA20785F
:10543000C0F3C300FFF720FA0220611CCAE7B3786B
:10544000002B3FF417AE04F07BFF2D287FF412AE43
:105450001D4E357815F078057FF40CAEFFF790F906
:1054600004463078C0F3C30054B9FFF751FA204620
:1054700022462146FFF756F90320FFF74BFCFAE5D9
:10548000FFF7FAF92846FFF745FC104B1D70F1E5D0
:10549000B378002B7FF45AADFFF772F900283FF480
:1054A00055AD0A4B1A78002A3FF4D1AD002231469F
:1054B00045F223201A70C8E5EE120020143B0020AC
:1054C000083B0020DC120020103B0020E4120020EA
:1054D000124B73B51B7804460D46C3B104238DF8F7
:1054E000043050238DF8053096238DF8063001984E
:1054F00002F08EFD0A4BC0F30742C0F30726187076
:105500009A70C1B2D2B2F0B25E7004F017F92946B7
:105510002046FFF7F5FA012002B070BDE512002029
:105520000C3B00200120704710B504F0DFFE01287D
:105530004FF0804406D004F0D1FE4FF40013012058
:10554000A36110BD2023FAE74FF48072044B9A61E7
:105550004FF400729A611022C3F81824704700BFFC
:105560000004004008B5FFF7EFFF012008BD05204B
:105570007047000004280DD805290BD80E2A09D839
:105580005A23C1EB011103FB0011034B0A4433F80A
:10559000120070470120704732FE00080520704756
:1055A000042808D839B9054B82F0010202EB40000B
:1055B00033F8100070470120704700BF1EFE00083E
:1055C000A0F58073B3F5F85F10B526D210F4805FB4
:1055D00000F4807300F4007400F4806100F4006251
:1055E0000DD0002B0CBF002010200CB140F020008B
:1055F00009B140F040000AB140F0800010BD181E13
:1056000018BF01200CB140F0020009B140F00400C5
:10561000002AF3D040F00800F0E70020EEE710B5D4
:105620000C46FFF7CDFF2346BDE8104018470000A9
:10563000A0F1E003072B10B5044600D940B920467D
:105640000449FFF7ECFFE0B2BDE81040FDF7EABA0D
:105650000149F6E7812D0008312E000810B50446F7
:10566000C0B2FDF73FFBA4F1E003072B00D92CB932
:1056700003492046BDE81040FFF7D1BF0149F8E7D4
:10568000D92D0008892E000801207047704708B501
:10569000FFF7FCFF08BD000013B502AB03E90300F0
:1056A0000F4B1B78B3B99DF8023073B16AB100F0AB
:1056B000B9FC04460146009800F072FC20460099AF
:1056C00002B0BDE8104001F017BB009800F08AFC62
:1056D0000446F3E7009800F0A5FC0099F0E700BF4E
:1056E000ED120020034610B400885C880A4640EAA8
:1056F0000440998810BCFFF7CFBF0120704710B558
:1057000004460021FFF7EEFF2146FFF7C0FF10BD62
:1057100010B501248440E4B2204601F0B6F82046DA
:10572000BDE8104000F09FBB704708B500F03EFB9D
:10573000FFF7FAFFBDE8084046F2A81007F035B9B8
:1057400008B5FFF7F2FFBDE8084006F013BA08B548
:10575000FFF7EBFFBDE8084006F032BA38B501218B
:105760000546FFF7BFFF2946044605F062F808B971
:10577000002038BD29462046FEF782FB0028F7D0DE
:105780002946204605F05AFE0028F1D02946204639
:1057900005F0EAF90028EBD02946204605F0CCFDBB
:1057A0000028E5D02946204604F0EAFE0028DFD094
:1057B0002946204605F090FE0028D9D0AB787BB171
:1057C00047F65A439C4222D00ED847F601439C42EA
:1057D0001AD047F603439C4214D0B4F5F84F0ED0CC
:1057E0002846FFF751FFC4E747F65B439C4211D0C0
:1057F00047F65C439C42F3D101F016F8F0E7FFF75F
:105800009FFFB5E701F023F8FFF7A1FFB0E701F034
:1058100017F8E5E701F017F8E2E708B500F02EF811
:10582000002004F023FDBDE80840FEF719BB034645
:1058300000091CBF034604209A081EBF134602300D
:10584000C0B25B081CBF0130C0B270477047012076
:105850007047704738B50546FFF7F9FF044610B1A9
:105860002846FFF7F6FF204638BD704710B50446BE
:10587000FFF7ECFF2046FFF7EDFF10BD08B505F080
:1058800091FFFFF7F3FF08BD10B505F08BFF074B45
:1058900004461A78824207D0187006F00FF9044BBC
:1058A00018602046FFF7E2FF10BD00BFEC12002099
:1058B000E812002010B586B06C4684E803009DF81D
:1058C00002300BB100F0F2FE0023ADF8163094E880
:1058D0000300ADF81410BDF81430049004AC94E843
:1058E000030002904BB14FF6FF73BDF808209A42B7
:1058F00003D02046FFF701FF18B194E8030000F041
:105900000FFE06B010BD008800F0ACBB704738B584
:1059100005460C46FDF786F91CB92846FDF7E2F965
:1059200038BD6420013C07F040F8A4B2F4E708B5A4
:1059300039280CBF50210A21FFF7E9FF08BD0000FC
:105940002DE9F047877981460C46857800F078FE8E
:105950003F090646F0B12E46E5B1C4F3072303F034
:10596000F002402A09D004F12002D2B2072A24D939
:105970001FB903F0E003202B21D0A94B5E7816F06D
:10598000040607D0022000F01BFF00F059FE80F053
:105990000106F6B2C4F3033ABAF10B0F3ED8DFE8C2
:1059A0001AF0100010005E005E00CB003D003D00CC
:1059B0003D00E3004401540154010026EAE73E465D
:1059C000E8E7C4F30723C4F3032713F0F00F18BF6D
:1059D0003F01E4B285B157B104F12003DBB2072BDC
:1059E000384600D92CB900F03BFE00F08FFE20466F
:1059F0005EE000F04BFEF8E72046FDF773F96FB16B
:105A000004F12003DBB2072B384600D914B900F0AB
:105A10002FFE01E000F042FE00F078FEAAF1080A35
:105A2000BAF1030F03D805F0BDFEFFF71FFF002EEC
:105A300000F0658100F0FCFD10F0010040F05F8196
:105A400089F8020000F0ECFD00F040FA484600F052
:105A50006DF900F0E5FDBDE8F04700F043BAC4F38E
:105A6000072303F0F003C4F30328202BE4B218BF8C
:105A70004FEA081874B1012C48D0002D4ED0002FE9
:105A800047D099F80630DA07B1D56FF3071389F8D4
:105A900006303EE0624B5B78590714D45DB1B8F133
:105AA000000F04D0404600F0DBFD00F02FFE002088
:105AB000FDF7B8F8B2E72846FDF714F9B8F1000F82
:105AC000ACD04046A3E795B13FB900F0F5FD40EA00
:105AD0000800C0B2FDF754F9A0E7012FF5D100F09E
